:100000000C9434000C943E000C943E000C943E0082
:100010000C943E000C943E000C943E000C943E0068
:100020000C943E000C943E000C943E000C943E0058
:100030000C943E000C943E000C943E000C943E0048
:100040000C943E000C943E000C943E000C943E0038
:100050000C943E000C943E000C943E000C943E0028
:100060000C943E000C943E0011241FBECFEFD8E04C
:10007000DEBFCDBF0E9464000C947E000C94000093
:100080009093C5008093C40088E18093C10086E00E
:100090008093C20008959091C00095FFFCCF80939B
:1000A000C60008958091C0008823E4F78091C600BF
:1000B000089585B1826085B98EE40E944B00089551
:1000C00085B18D7F85B9089584B1826084B987E652
:1000D00090E00E9440000E945200833761F40E9429
:1000E00059002FE38DE093E0215080409040E1F7EC
:1000F00000C00000F0CF0E946000EDCFF894FFCF69
:00000001FF
