:100000000C9434000C943E000C943E000C943E0082
:100010000C943E000C943E000C943E000C943E0068
:100020000C943E000C943E000C943E000C943E0058
:100030000C943E000C943E000C943E000C943E0048
:100040000C943E000C943E000C943E000C943E0038
:100050000C943E000C943E000C943E000C943E0028
:100060000C943E000C943E0011241FBECFEFD8E04C
:10007000DEBFCDBF0E9440000C9462000C940000D3
:1000800084B1846084B985B1826085B985B18B7F84
:1000900085B92FEF83ED90E3215080409040E1F748
:1000A00000C0000085B18D7F85B985B1846085B9B8
:1000B0002FEF83ED90E3215080409040E1F700C0A6
:0800C0000000E1CFF894FFCF2E
:00000001FF
