S00F00007477695F6C63642E737265632F
S11300000C9434000C9451000C9451000C94510045
S11300100C9451000C9451000C9451000C94510018
S11300200C9451000C9451000C9451000C94510008
S11300300C9451000C9451000C9451000C945100F8
S11300400C9451000C9451000C9451000C945100E8
S11300500C9451000C9451000C9451000C945100D8
S11300600C9451000C94510011241FBECFEFD8E022
S1130070DEBFCDBF11E0A0E0B1E0EAE0F8E102C0EC
S113008005900D92AC33B107D9F721E0ACE3B1E0B0
S113009001C01D92AD33B207E1F70E9426080C940B
S11300A0030C0C9400000F931F93CF93DF93CDB7F1
S11300B0DEB7C656D1090FB6F894DEBF0FBECDBF6A
S11300C083E00E94D90480E090E0A0EAB0E4898350
S11300D09A83AB83BC8320E030E04AE755E469812E
S11300E07A818B819C810E94960BDC01CB018D83EC
S11300F09E83AF83B88720E030E040E85FE36D8102
S11301007E818F8198850E94760A88232CF481E071
S113011090E09A8789873FC020E03FEF4FE757E49C
S11301206D817E818F8198850E94910B18164CF504
S113013020E030E040E251E469817A818B819C8146
S11301400E94960BDC01CB01BC01CD010E94ED0A9B
S1130150DC01CB019A8789870FC080E991E09C87F5
S11301608B878B859C850197F1F79C878B87898585
S11301709A8501979A87898789859A85892B69F752
S113018014C06D817E818F8198850E94ED0ADC0107
S1130190CB019A87898789859A859E878D878D85E6
S11301A09E850197F1F79E878D8783E00E94D9048D
S11301B080E090E0A8ECB2E48F87988BA98BBA8B8F
S11301C02BEA3AEA4AEA50E46F85788989899A8960
S11301D00E94960BDC01CB018B8B9C8BAD8BBE8B71
S11301E020E030E040E850E46F85788989899A8975
S11301F00E94960BDC01CB018F8B988FA98FBA8F4D
S113020020E030E040E85FE36B897C898D899E893A
S11302100E94760A88231CF481E08B8FB2C020E010
S11302203FEF4FE757E46F89788D898D9A8D0E944F
S1130230910B18160CF07BC020E030E04AE754E440
S11302406F85788989899A890E947B0ADC01CB01B0
S11302508C8F9D8FAE8FBF8F20E030E04AE755E44E
S11302606C8D7D8D8E8D9F8D0E94960BDC01CB0154
S113027088A399A3AAA3BBA320E030E040E85FE3EE
S113028068A179A18AA19BA10E94760A88232CF4F3
S113029081E090E09DA38CA33FC020E03FEF4FE7B7
S11302A057E468A179A18AA19BA10E94910B181619
S11302B04CF520E030E040E251E46C8D7D8D8E8D74
S11302C09F8D0E94960BDC01CB01BC01CD010E94E5
S11302D0ED0ADC01CB019DA38CA30FC080E991E062
S11302E09FA38EA38EA19FA10197F1F79FA38EA335
S11302F08CA19DA101979DA38CA38CA19DA1892B69
S113030069F73FC068A179A18AA19BA10E94ED0A67
S1130310DC01CB019DA38CA38CA19DA199A788A7E7
S113032088A599A50197F1F799A788A72AC020E085
S113033030E04FE753E46B897C898D899E890E9464
S1130340910B1816ACF46F89788D898D9A8D0E9463
S1130350ED0ADC01CB019BA78AA78AA59BA59DA7D3
S11303608CA78CA59DA50197F1F79DA78CA70FC01D
S11303706B897C898D899E890E94ED0ADC01CB0101
S11303808B8F8B8D8EA78EA58A95F1F78EA783E030
S11303900E94D90480E090E0A0E8BFE38FA798AB67
S11303A0A9ABBAAB20E030E04AE755E46FA578A9E1
S11303B089A99AA90E94960BDC01CB018BAB9CAB5B
S11303C0ADABBEAB20E030E040E85FE36BA97CA9B5
S11303D08DA99EA90E94760A88232CF481E090E0DE
S11303E098AF8FAB3FC020E03FEF4FE757E46BA9D6
S11303F07CA98DA99EA90E94910B18164CF520E0AA
S113040030E040E251E46FA578A989A99AA90E9435
S1130410960BDC01CB01BC01CD010E94ED0ADC018D
S1130420CB0198AF8FAB0FC080E991E09AAF89AF51
S113043089AD9AAD0197F1F79AAF89AF8FA998ADBD
S1130440019798AF8FAB8FA998AD892B69F714C02A
S11304506BA97CA98DA99EA90E94ED0ADC01CB01A0
S113046098AF8FAB8FA998AD9CAF8BAF8BAD9CAD84
S11304700197F1F79CAF8BAF82E00E94D90480E032
S113048090E0A0E8BFE39E01235C3F4FF901808325
S11304909183A283B3838E010F5B1F4F20E030E072
S11304A04AE755E4CE01CD96FC01608171818281D9
S11304B093810E94960BDC01CB01F8018083918328
S11304C0A283B383CE018F5B9F4F20E030E040E8EE
S11304D05FE3FC0160817181828193810E94760ACD
S11304E088234CF4CE018B5B9F4F21E030E0FC016C
S11304F0318320836CC0CE018F5B9F4F20E03FEFA0
S11305004FE757E4FC0160817181828193810E94ED
S1130510910B18160CF049C020E030E040E251E4A1
S1130520CE01CD96FC0160817181828193810E940C
S1130530960BDC01CB018E010B5B1F4FBC01CD017F
S11305400E94ED0ADC01CB01F8019183808324C071
S1130550CE01895B9F4F20E931E0FC013183208388
S1130560CE01895B9F4FFC01808191810197F1F756
S11305709E01295B3F4FF90191838083CE018B5B00
S11305809F4F9E012B5B3F4FF90120813181215008
S11305903109FC0131832083CE018B5B9F4FFC0129
S11305A080819181892BA1F62CC08E010B5B1F4F9A
S11305B0CE018F5B9F4FFC016081718182819381A9
S11305C00E94ED0ADC01CB01F80191838083CE0106
S11305D0875B9F4F9E012B5B3F4FF9012081318147
S11305E0FC0131832083CE01875B9F4FFC01808116
S11305F091810197F1F79E01275B3F4FF9019183A8
S1130600808360E088E20E9409079E01255B3F4FDA
S113061080E090E0A0E8BFE3F90180839183A283A6
S1130620B3838E01015B1F4FCE01855B9F4F20E09A
S113063030E04AE755E4FC01608171818281938155
S11306400E94960BDC01CB01F80180839183A28385
S1130650B383CE01815B9F4F20E030E040E85FE34D
S1130660FC0160817181828193810E94760A8823D2
S11306704CF4CE018D5A9F4F21E030E0FC013183D0
S113068020836DC0CE01815B9F4F20E03FEF4FE799
S113069057E4FC0160817181828193810E94910BF6
S11306A018160CF04AC0CE01855B9F4F20E030E065
S11306B040E251E4FC0160817181828193810E9456
S11306C0960BDC01CB018E010D5A1F4FBC01CD01ED
S11306D00E94ED0ADC01CB01F8019183808324C0E0
S11306E0CE018B5A9F4F20E931E0FC0131832083F6
S11306F0CE018B5A9F4FFC01808191810197F1F7C4
S11307009E012B5A3F4FF90191838083CE018D5A6C
S11307109F4F9E012D5A3F4FF90120813181215075
S11307203109FC0131832083CE018D5A9F4FFC0196
S113073080819181892BA1F62CC08E010D5A1F4F07
S1130740CE01815B9F4FFC01608171818281938125
S11307500E94ED0ADC01CB01F80191838083CE0174
S1130760895A9F4F9E012D5A3F4FF90120813181B3
S1130770FC0131832083CE01895A9F4FFC01808183
S113078091810197F1F79E01295A3F4FF901918315
S1130790808360E08EE00E9409079E01275A3F4F44
S11307A080E090E0A0E8BFE3F90180839183A28315
S11307B0B3838E01035A1F4FCE01875A9F4F20E007
S11307C030E04AE755E4FC016081718182819381C4
S11307D00E94960BDC01CB01F80180839183A283F4
S11307E0B383CE01835A9F4F20E030E040E85FE3BB
S11307F0FC0160817181828193810E94760A882341
S11308004CF4CE018F599F4F21E030E0FC0131833D
S113081020836DC0CE01835A9F4F20E03FEF4FE706
S113082057E4FC0160817181828193810E94910B64
S113083018160CF04AC0CE01875A9F4F20E030E0D2
S113084040E251E4FC0160817181828193810E94C4
S1130850960BDC01CB018E010F591F4FBC01CD015A
S11308600E94ED0ADC01CB01F8019183808324C04E
S1130870CE018D599F4F20E931E0FC013183208363
S1130880CE018D599F4FFC01808191810197F1F731
S11308909E012D593F4FF90191838083CE018F59D9
S11308A09F4F9E012F593F4FF901208131812150E3
S11308B03109FC0131832083CE018F599F4FFC0104
S11308C080819181892BA1F62CC08E010F591F4F75
S11308D0CE01835A9F4FFC01608171818281938193
S11308E00E94ED0ADC01CB01F80191838083CE01E3
S11308F08B599F4F9E012F593F4FF9012081318120
S1130900FC0131832083CE018B599F4FFC018081F0
S113091091810197F1F79E012B593F4FF901918382
S1130920808380913C01886080933C0180913C01EC
S11309306EE40E94540A80913C018D7F80933C01B7
S113094080913C016EE40E94540ACA59DF4F0FB6ED
S1130950F894DEBF0FBECDBFDF91CF911F910F91F1
S11309600895CF93DF931F92CDB7DEB78983898132
S1130970882F90E0009719F0019761F016C08091DC
S11309803C01877F80933C0180913C016EE40E948E
S1130990540A0BC080913C01886080933C01809193
S11309A03C016EE40E94540A00000F90DF91CF9145
S11309B00895CF93DF93CDB7DEB7C154D1090FB6F5
S11309C0F894DEBF0FBECDBF9E012F5B3F4FF901F0
S11309D08083CE018F5B9F4F9E012F5B3F4FF901B8
S11309E020812295207FFC01208380913C0184603A
S11309F080933C0180913C016EE40E94540A80E0A3
S1130A0090E0A8E4B2E489839A83AB83BC832BEAA5
S1130A103AEA4AEA50E469817A818B819C810E9496
S1130A20960BDC01CB018D839E83AF83B88720E0D6
S1130A3030E040E850E469817A818B819C810E9496
S1130A40960BDC01CB0189879A87AB87BC8720E0B2
S1130A5030E040E85FE36D817E818F8198850E945C
S1130A60760A88231CF481E08D87B2C020E03FEF32
S1130A704FE757E469857A858B859C850E94910BA5
S1130A8018160CF07BC020E030E04AE754E469819A
S1130A907A818B819C810E947B0ADC01CB018E8749
S1130AA09F87A88BB98B20E030E04AE755E46E8538
S1130AB07F85888999890E94960BDC01CB018A8BFA
S1130AC09B8BAC8BBD8B20E030E040E85FE36A8910
S1130AD07B898C899D890E94760A88232CF481E085
S1130AE090E09F8B8E8B3FC020E03FEF4FE757E4B1
S1130AF06A897B898C899D890E94910B18164CF513
S1130B0020E030E040E251E46E857F858889998950
S1130B100E94960BDC01CB01BC01CD010E94ED0AC1
S1130B20DC01CB019F8B8E8B0FC080E991E0998F04
S1130B30888F888D998D0197F1F7998F888F8E8989
S1130B409F8901979F8B8E8B8E899F89892B69F74B
S1130B503FC06A897B898C899D890E94ED0ADC01EA
S1130B60CB019F8B8E8B8E899F899B8F8A8F8A8DD9
S1130B709B8D0197F1F79B8F8A8F2AC020E030E08C
S1130B804FE753E46D817E818F8198850E94910B9C
S1130B901816ACF469857A858B859C850E94ED0ACC
S1130BA0DC01CB019D8F8C8F8C8D9D8D9F8F8E8FC3
S1130BB08E8D9F8D0197F1F79F8F8E8F0FC06D8162
S1130BC07E818F8198850E94ED0ADC01CB018D879F
S1130BD08D8588A388A18A95F1F788A320913C018B
S1130BE0CE018F5B9F4FFC018081822B6EE40E94BB
S1130BF0540A80913C018B7F80933C0180913C019D
S1130C006EE40E94540A80E090E0A8E4B2E489A370
S1130C109AA3ABA3BCA32BEA3AEA4AEA50E469A13B
S1130C207AA18BA19CA10E94960BDC01CB018DA320
S1130C309EA3AFA3B8A720E030E040E850E469A148
S1130C407AA18BA19CA10E94960BDC01CB0189A700
S1130C509AA7ABA7BCA720E030E040E85FE36DA112
S1130C607EA18FA198A50E94760A88231CF481E0B6
S1130C708DA7B2C020E03FEF4FE757E469A57AA5FE
S1130C808BA59CA50E94910B18160CF07BC020E04C
S1130C9030E04AE754E469A17AA18BA19CA10E94A7
S1130CA07B0ADC01CB018EA79FA7A8ABB9AB20E0E0
S1130CB030E04AE755E46EA57FA588A999A90E946A
S1130CC0960BDC01CB018AAB9BABACABBDAB20E09C
S1130CD030E040E85FE36AA97BA98CA99DA90E9442
S1130CE0760A88232CF481E090E09FAB8EAB3FC062
S1130CF020E03FEF4FE757E46AA97BA98CA99DA99F
S1130D000E94910B18164CF520E030E040E251E4CB
S1130D106EA57FA588A999A90E94960BDC01CB0139
S1130D20BC01CD010E94ED0ADC01CB019FAB8EAB6F
S1130D300FC080E991E099AF88AF88AD99AD019774
S1130D40F1F799AF88AF8EA99FA901979FAB8EAB9E
S1130D508EA99FA9892B69F73FC06AA97BA98CA991
S1130D609DA90E94ED0ADC01CB019FAB8EAB8EA93D
S1130D709FA99BAF8AAF8AAD9BAD0197F1F79BAF5B
S1130D808AAF2AC020E030E04FE753E46DA17EA192
S1130D908FA198A50E94910B1816ACF469A57AA5A9
S1130DA08BA59CA50E94ED0ADC01CB019DAF8CAF05
S1130DB08CAD9DAD9FAF8EAF8EAD9FAD0197F1F71A
S1130DC09FAF8EAF1CC06DA17EA18FA198A50E947C
S1130DD0ED0ADC01CB018DA72DA5CE01805C9F4FD0
S1130DE0FC012083CE01805C9F4FFC018081282F71
S1130DF02A95F1F7CE01805C9F4FFC012083CF5BE5
S1130E00DF4F0FB6F894DEBF0FBECDBFDF91CF9199
S1130E100895CF93DF9300D01F92CDB7DEB78A83B6
S1130E206B838B81882359F480913C018E7F80935E
S1130E303C0180913C016EE40E94540A0AC08091F6
S1130E403C01816080933C0180913C016EE40E94EE
S1130E50540A19828A8182958F70898389810E94BC
S1130E60D9048A810E94D9040F900F900F90DF91CA
S1130E70CF910895CF93DF9300D01F92CDB7DEB703
S1130E809B838A8319820FC08981882F90E02A81ED
S1130E903B81820F931FFC01808161E00E9409075E
S1130EA089818F5F89838981882F90E02A813B81A2
S1130EB0820F931FFC018081882331F70F900F90DC
S1130EC00F90DF91CF910895CF93DF9300D0CDB7EA
S1130ED0DEB789836A838A81882F90E08130910507
S1130EE091F0823091051CF4892B39F021C08230B5
S1130EF0910581F00397A9F01BC08981806860E0A7
S1130F000E94090715C08981805C806860E00E94A6
S1130F1009070EC08981805F806860E00E9409072C
S1130F2007C08981805B806860E00E940907000037
S1130F300F900F90DF91CF910895CF93DF93CDB7AA
S1130F40DEB72E970FB6F894DEBF0FBECDBF60E0BC
S1130F5081E00E94090780E090E0A0EAB0E4898380
S1130F609A83AB83BC8320E030E04AE755E469818F
S1130F707A818B819C810E94960BDC01CB018D834D
S1130F809E83AF83B88720E030E040E85FE36D8163
S1130F907E818F8198850E94760A88232CF481E0D3
S1130FA090E09A8789873FC020E03FEF4FE757E4FE
S1130FB06D817E818F8198850E94910B18164CF566
S1130FC020E030E040E251E469817A818B819C81A8
S1130FD00E94960BDC01CB01BC01CD010E94ED0AFD
S1130FE0DC01CB019A8789870FC080E991E09C8757
S1130FF08B878B859C850197F1F79C878B878985E7
S11310009A8501979A87898789859A85892B69F7B3
S113101014C06D817E818F8198850E94ED0ADC0168
S1131020CB019A87898789859A859E878D878D8547
S11310309E850197F1F79E878D872E960FB6F894BB
S1131040DEBF0FBECDBFDF91CF910895CF93DF9365
S1131050CDB7DEB7E8970FB6F894DEBF0FBECDBFAD
S113106080E090E0A8E4B2E489839A83AB83BC83F4
S113107020E030E04AE755E469817A818B819C81E4
S11310800E94960BDC01CB018D839E83AF83B887CE
S113109020E030E040E85FE36D817E818F819885B8
S11310A00E94760A88232CF481E090E09A8789874D
S11310B03FC020E03FEF4FE757E46D817E818F8191
S11310C098850E94910B18164CF520E030E040E220
S11310D051E469817A818B819C810E94960BDC01A9
S11310E0CB01BC01CD010E94ED0ADC01CB019A8742
S11310F089870FC080E991E09C878B878B859C85CD
S11311000197F1F79C878B8789859A8501979A8740
S1131110898789859A85892B69F714C06D817E81B9
S11311208F8198850E94ED0ADC01CB019A8789871B
S113113089859A859E878D878D859E850197F1F790
S11311409E878D870E94530080E090E0AAE7B4E474
S11311508F87988BA98BBA8B20E030E04AE755E45F
S11311606F85788989899A890E94960BDC01CB0165
S11311708B8B9C8BAD8BBE8B20E030E040E85FE333
S11311806B897C898D899E890E94760A88232CF438
S113119081E090E0988F8F8B3FC020E03FEF4FE7D6
S11311A057E46B897C898D899E890E94910B18165E
S11311B04CF520E030E040E251E46F85788989897C
S11311C09A890E94960BDC01CB01BC01CD010E94DF
S11311D0ED0ADC01CB01988F8F8B0FC080E991E081
S11311E09A8F898F898D9A8D0197F1F79A8F898FBC
S11311F08F89988D0197988F8F8B8F89988D892BE4
S113120069F714C06B897C898D899E890E94ED0AD7
S1131210DC01CB01988F8F8B8F89988D9C8F8B8F5E
S11312208B8D9C8D0197F1F79C8F8B8F0E949D076E
S113123060E080E00E94640780E091E00E943A0749
S113124061E081E00E9464078DE091E00E943A072A
S113125062E080E00E9464078AE191E00E943A071C
S113126063E081E00E9464078BE291E00E943A0708
S113127081E00E94B10480E090E4ACE9B5E48D8F94
S11312809E8FAF8FB8A320E030E04AE755E46D8D20
S11312907E8D8F8D98A10E94960BDC01CB0189A3D2
S11312A09AA3ABA3BCA320E030E040E85FE369A1CC
S11312B07AA18BA19CA10E94760A88232CF481E058
S11312C090E09EA38DA33FC020E03FEF4FE757E49B
S11312D069A17AA18BA19CA10E94910B18164CF5CF
S11312E020E030E040E251E46D8D7E8D8F8D98A139
S11312F00E94960BDC01CB01BC01CD010E94ED0ADA
S1131300DC01CB019EA38DA30FC080E991E098A7D7
S11313108FA38FA198A50197F1F798A78FA38DA10B
S11313209EA101979EA38DA38DA19EA1892B69F7F0
S113133014C069A17AA18BA19CA10E94ED0ADC01D1
S1131340CB019EA38DA38DA19EA19AA789A789A550
S11313509AA50197F1F79AA789A781E00E94B104A1
S113136080E090E4ACE9B5E48BA79CA7ADA7BEA749
S113137020E030E04AE755E46BA57CA58DA59EA549
S11313800E94960BDC01CB018FA798ABA9ABBAAB3B
S113139020E030E040E85FE36FA578A989A99AA925
S11313A00E94760A88232CF481E090E09CAB8BABFE
S11313B03FC020E03FEF4FE757E46FA578A989A924
S11313C09AA90E94910B18164CF520E030E040E2F7
S11313D051E46BA57CA58DA59EA50E94960BDC010E
S11313E0CB01BC01CD010E94ED0ADC01CB019CAB19
S11313F08BAB0FC080E991E09EAB8DAB8DA99EA90C
S11314000197F1F79EAB8DAB8BA99CA901979CAB7F
S11314108BAB8BA99CA9892B69F714C06FA578A9FC
S113142089A99AA90E94ED0ADC01CB019CAB8BAB84
S11314308BA99CA998AF8FAB8FA998AD0197F1F7B1
S113144098AF8FAB81E00E94B10415CFCF93DF93A7
S1131450CDB7DEB78CEB90E024EAFC0120830000DA
S11314608CEB90E0FC0180818823D4F7DF91CF914D
S11314700895CF93DF931F92CDB7DEB789838BEBAB
S113148090E02981FC0120838CEB90E024E8FC01AE
S1131490208300008CEB90E0FC0180818823D4F74A
S11314A00F90DF91CF910895CF93DF9300D0CDB704
S11314B0DEB789836A830E94260A8A810E94390AD8
S11314C089810E94390A0E946A0A0F900F90DF9165
S11314D0CF910895CF93DF93CDB7DEB78CEB90E037
S11314E024E9FC012083DF91CF9108950E941C0B15
S11314F008F481E008950E948F0A0C94570B0E940F
S1131500500B58F00E94490B40F029F45F3F29F03A
S11315100C94400B51110C948B0B0C94460B0E94B1
S1131520680B68F39923B1F3552391F3951B550B7D
S1131530BB27AA2762177307840738F09F5F5F4FA2
S1131540220F331F441FAA1FA9F335D00E2E3AF0E1
S1131550E0E832D091505040E695001CCAF72BD0F9
S1131560FE2F29D0660F771F881FBB1F261737074A
S11315704807AB07B0E809F0BB0B802DBF01FF277C
S113158093585F4F3AF09E3F510578F00C94400B0E
S11315900C948B0B5F3FE4F3983ED4F386957795D8
S11315A06795B795F7959F5FC9F7880F911D969535
S11315B0879597F90895E1E0660F771F881FBB1F91
S11315C0621773078407BA0720F0621B730B840B3E
S11315D0BA0BEE1F88F7E09508950E94700B88F00F
S11315E09F5798F0B92F9927B751B0F0E1F0660FE3
S11315F0771F881F991F1AF0BA95C9F714C0B13024
S113160091F00E948A0BB1E008950C948A0B672F25
S1131610782F8827B85F39F0B93FCCF38695779552
S11316206795B395D9F73EF490958095709561953B
S11316307F4F8F4F9F4F0895990F0008550FAA0BA6
S1131640E0E8FEEF16161706E807F907C0F01216D1
S11316501306E407F50798F0621B730B840B950BD4
S113166039F40A2661F0232B242B252B21F4089529
S11316700A2609F4A140A6958FEF811D811D0895C6
S113168097F99F6780E870E060E008959FEF80EC31
S1131690089500240A9416161706180609060895D4
S11316A000240A9412161306140605060895092E3A
S11316B00394000C11F4882352F0BB0F40F4BF2BA9
S11316C011F460FF04C06F5F7F4F8F4F9F4F0895E9
S11316D057FD9058440F551F59F05F3F71F04795DF
S11316E0880F97FB991F61F09F3F79F087950895C4
S11316F0121613061406551FF2CF4695F1DF08C0E3
S1131700161617061806991FF1CF869571056105FF
S113171008940895E894BB2766277727CB0197F9A7
S113172008950E941C0B08F48FEF08950E94A90BE2
S11317300C94570B0E94490B38F00E94500B20F078
S1131740952311F00C94400B0C94460B11240C942B
S11317508B0B0E94680B70F3959FC1F3950F50E0BB
S1131760551F629FF001729FBB27F00DB11D639F4F
S1131770AA27F00DB11DAA1F649F6627B00DA11DF5
S1131780661F829F2227B00DA11D621F739FB00D9B
S1131790A11D621F839FA00D611D221F749F33270B
S11317A0A00D611D231F849F600D211D822F762FA4
S11317B06A2F11249F5750409AF0F1F088234AF081
S11317C0EE0FFF1FBB1F661F771F881F91505040ED
S11317D0A9F79E3F510580F00C94400B0C948B0BA1
S11317E05F3FE4F3983ED4F3869577956795B79574
S11317F0F795E7959F5FC1F7FE2B880F911D96958E
S10D1800879597F90895F894FFCF37
S113180A3C3C20566963746F72203E3E003E3E2083
S113181A576162757269203C3C00536F6674207488
S113182A68617420776F726B732100636F646563F8
S10F183A72616E63682E636F6D20000005
S9030000FC
