S0190000746F67676C652D6C65642D627574746F6E2E737265635E
S11300000C9434000C943E000C943E000C943E007E
S11300100C943E000C943E000C943E000C943E0064
S11300200C943E000C943E000C943E000C943E0054
S11300300C943E000C943E000C943E000C943E0044
S11300400C943E000C943E000C943E000C943E0034
S11300500C943E000C943E000C943E000C943E0024
S11300600C943E000C943E0011241FBECFEFD8E048
S1130070DEBFCDBF0E9440000C9456000C940000DB
S113008084B1826084B984B18E7F84B91899FECF1B
S113009095B182E0892785B92FEF85EA9EE021504A
S11300A080409040E1F700C00000F0CFF894FFCF0B
S9030000FC
