S01D0000636F6E74726F6C2D322D6C6564732D627574746F6E2E7372656309
S11300000C9434000C943E000C943E000C943E007E
S11300100C943E000C943E000C943E000C943E0064
S11300200C943E000C943E000C943E000C943E0054
S11300300C943E000C943E000C943E000C943E0044
S11300400C943E000C943E000C943E000C943E0034
S11300500C943E000C943E000C943E000C943E0024
S11300600C943E000C943E0011241FBECFEFD8E048
S1130070DEBFCDBF0E9440000C9450000C940000E1
S113008084B1826084B984B18E7F84B9189B04C022
S113009085B1826085B9FACF85B18D7F85B9F6CFF8
S10700A0F894FFCFFE
S9030000FC
